:020000040000FA
:0400000044EF1FF0BA
:103E3200076E07C083FF848084928484000E026E22
:103E42000F0E016E57EC1FF084941200076E07C02C
:103E520083FF849084928484000E026E0F0E016EA2
:083E620057EC1FF084941200DC
:103E6B0049742773206E6F742061206A6F6B005743
:103E7B00656C636F6D652053452D4954006B0EF6D1
:103E8B006E3E0EF76E000EF86E00EE29F010EE1D72
:103E9B00F00900F5CFEEFFE550E150FAE10001C764
:103EAB00EF1FF0000E046E000E036E70EF1FF0009C
:103EBB000E066E000E056E054A062A130E055C01F2
:103ECB000E0658D8A06CEF1FF06EEF1FF061EF1FBE
:103EDB00F0034A042A0150035C02500458D8A0791D
:103EEB00EF1FF07BEF1FF05DEF1FF01200380E2776
:103EFB00EC1FF0000E026E0F0E016E57EC1FF0015F
:103F0B000E27EC1FF0000E026E0F0E016E57EC1F0A
:103F1B00F00C0E27EC1FF0000E026E0F0E016E5709
:103F2B00EC1FF0800E27EC1FF0000E026E0F0E013F
:103F3B006E57EC1FF01200000E0B6E000E0A6EB8DF
:103F4B00EF1FF00A500824D96E0B500920DA6EDFF0
:103F5B005019EC1FF0000E026E0F0E016E57EC1F86
:103F6B00F00A4A0B2A0A500824D96E0B500920DAA2
:103F7B006EDF50D8A4C4EF1FF0C6EF1FF0A7EF1FE2
:103F8B00F0120020EE38F010EE1BF00D0EDBCFE33D
:103F9B00FFE806FCE220EE29F010EE0CF00E0EDB33
:103FAB00CFE3FFE806FCE20F0EC16E000E956E002C
:103FBB000E966E7CEC1FF0000E026E320E016E57E9
:103FCB00EC1FF01B0E086E000E096EA1EC1FF0002B
:103FDB000E026E0F0E016E57EC1FF0C00E27EC1F7A
:103FEB00F00C0E086E000E096EA1EC1FF0FCEF1F1B
:053FFB00F000EF00F0F2
:020000040020DA
:08000000FFFFFFFFFFFFFFFF00
:020000040030CA
:0E000000FF021F1EFF8181FF0FC00FE00F40A7
:00000001FF
