:020000040000FA
:0400000053EF1FF0AB
:103EA600000190EF1FF0000E046E000E036E82EF0D
:103EB6001FF0000E066E000E056E130E055C010E59
:103EC6000658D8A069EF1FF06BEF1FF06FEF1FF0D9
:103ED6007EEF1FF07EEF1FF0054A062A130E055CE3
:103EE600010E0658D8A07AEF1FF07CEF1FF06FEF97
:103EF6001FF07EEF1FF0034A042A82EF1FF00150E5
:103F0600035C02500458D8A08BEF1FF08DEF1FF012
:103F16005CEF1FF08FEF1FF01200000E076EF19E90
:103F26000F0EC16E9380938293949396000E956EB6
:103F3600000E836E81968194A1EF1FF081B0A6EFEB
:103F46001FF0A8EF1FF0ACEF1FF0010E076EACEFED
:103F56001FF081B2B1EF1FF0B3EF1FF0B7EF1FF004
:103F6600020E076EB7EF1FF00704D8A4BDEF1FF0CF
:103F7600BFEF1FF0D8EF1FF081868184D890833081
:103F8600836E8350D8A4CAEF1FF0CCEF1FF0D0EF9A
:103F96001FF0800E836ED0EF1FF0000E026EFA0E39
:103FA600016E56EC1FF0D8EF1FF0020E0718D8A4CA
:103FB600DFEF1FF0E1EF1FF0A1EF1FF08196819474
:103FC60083508324836E8350D8A4ECEF1FF0EEEF6A
:103FD6001FF0F2EF1FF0010E836EF2EF1FF0000EDE
:103FE600026EFA0E016E56EC1FF0A1EF1FF0A1EF64
:0A3FF6001FF0A1EF1FF000EF00F034
:020000040020DA
:08000000FFFFFFFFFFFFFFFF00
:020000040030CA
:0E000000FF021F1EFF8181FF0FC00FE00F40A7
:00000001FF
