:020000040000FA
:040000008CEF1DF074
:103AB200C2821200040EC26E0E0EC16E8E0EC06E57
:043AC200C2801200AC
:103AC7004C4D333520496E746572666163650054E9
:103AD700656D702E3A00DF4300076E07C083FF84D1
:103AE7008084928484000E026E0F0E016E0CEC1E11
:103AF700F084941200076E07C083FF849084928439
:103B070084000E026E0F0E016E0CEC1EF0849412F0
:103B170000C70EF66E3A0EF76E000EF86E00EE3224
:103B2700F010EE19F00900F5CFEEFFE550E150FA7D
:103B3700E1000164EF1FF0000E066E000E056EA592
:103B4700EF1DF0C2B2AAEF1DF0ACEF1DF0A5EF1DFF
:103B5700F0C3CF05F0066AC450046E036A0350052C
:103B6700120450061205C001F006C002F0BCEF1D9A
:103B7700F01200380E7EEC1DF0000E026E0F0E01E3
:103B87006E0CEC1EF0010E7EEC1DF0000E026E0FA7
:103B97000E016E0CEC1EF00C0E7EEC1DF0000E02FA
:103BA7006E0F0E016E0CEC1EF0800E7EEC1DF00009
:103BB7000E026E0F0E016E0CEC1EF01200000E0BC3
:103BC7006E000E0A6EFBEF1DF00A500824D96E0B2B
:103BD700500920DA6EDF5070EC1DF0000E026E0FF8
:103BE7000E016E0CEC1EF00A4A0B2AFBEF1DF00AC1
:103BF700500824D96E0B500920DA6EDF50D8A4077D
:103C0700EF1EF009EF1EF0E8EF1DF00BEF1EF012AC
:103C170000000E046E000E036E38EF1EF0000E0655
:103C27006E000E056E130E055C010E0658D8A01F18
:103C3700EF1EF021EF1EF025EF1EF034EF1EF034DB
:103C4700EF1EF0054A062A130E055C010E0658D82A
:103C5700A030EF1EF032EF1EF025EF1EF034EF1EFE
:103C6700F0034A042A38EF1EF00150035C025004A7
:103C770058D8A041EF1EF043EF1EF012EF1EF0459B
:103C8700EF1EF0120003500410D8B44DEF1EF04F92
:103C9700EF1EF07DEF1EF0010E056E59EF1EF0D8F6
:103CA7009003360436052A59EF1EF004AE5EEF1E68
:103CB700F060EF1EF053EF1EF064EF1EF064EF1E8E
:103CC700F00350015C04500258D8A06DEF1EF06F4E
:103CD700EF1EF075EF1EF00350015E0450025A7597
:103CE700EF1EF0D89004320332052E64EF1EF07DEC
:103CF700EF1EF001C001F002C002F01200000E0634
:103D07006E02BE8BEF1EF089EF1EF093EF1EF001DF
:103D17006C021ED8B0022A010E066E93EF1EF00445
:103D2700BE9AEF1EF098EF1EF0A0EF1EF0036C0492
:103D37001ED8B0042AA0EF1EF003500410D8B4A771
:103D4700EF1EF0A9EF1EF0D9EF1EF0010E056EB3BE
:103D5700EF1EF0D89003360436052AB3EF1EF004A1
:103D6700AEB8EF1EF0BAEF1EF0ADEF1EF0BEEF1EBD
:103D7700F0BEEF1EF00350015C04500258D8A0C7F4
:103D8700EF1EF0C9EF1EF0CFEF1EF00350015E04E7
:103D970050025ACFEF1EF0D89004320332052EBEE0
:103DA700EF1EF0D9EF1EF0D9EF1EF00650D8B4DFA2
:103DB700EF1EF0E1EF1EF0E7EF1EF0016C021ED8D8
:103DC700B0022AE7EF1EF001C001F002C002F0EDD9
:103DD700EF1EF01200000E0C6E0ABEF7EF1EF0F594
:103DE700EF1EF0FFEF1EF0096C0A1ED8B00A2A0179
:103DF7000E0C6EFFEF1EF008BE06EF1FF004EF1F5C
:103E0700F00EEF1FF0076C081ED8B0082A010E0C41
:103E17001A0EEF1FF0000E0E6E000E0D6E09500AFF
:103E270010D8B419EF1FF01BEF1FF04FEF1FF00171
:103E37000E0B6E25EF1FF0D89009360A360B2A2590
:103E4700EF1FF00AAE2AEF1FF02CEF1FF01FEF1F36
:103E5700F030EF1FF030EF1FF0D8900D360E360917
:103E670050075C0A500858D8A03CEF1FF03EEF1FE0
:103E7700F045EF1FF00950075E0A50085A0D8045BC
:103E8700EF1FF0D8900A3209320B2E30EF1FF04F98
:103E9700EF1FF04FEF1FF00C50D8B455EF1FF0573E
:103EA700EF1FF05DEF1FF00D6C0E1ED8B00E2A5DF0
:103EB700EF1FF00DC007F00EC008F063EF1FF01200
:103EC7000020EE32F010EE11F00E0EDBCFE3FFE82C
:103ED70006FCE220EE41F010EE20F0060EDBCFE309
:103EE700FFE806FCE248C027F049C028F04AC0298D
:103EF700F0000E2A6E000E316E0F0EC16E000E9589
:103F07006E000E966E5BEC1DF0BDEC1DF0110E08F9
:103F17006E000E096EE2EC1DF0C00E7EEC1DF02067
:103F27000E086E000E096EE2EC1DF09BEF1FF059B4
:103F3700EC1DF09FEC1DF001C02FF002C030F0D84F
:103F47009030300F6E2F302F6E0FC030F0C70E7EBF
:103F5700EC1DF02FC02EF02EC007F0086A000E0AE5
:103F67006E640E096EEEEC1EF00750316E31503064
:103F77000F2C6E2C5070EC1DF0000E046E640E03B7
:103F87006E2EC001F0026A82EC1EF001C007F0023B
:103F9700C008F0000E0A6E0A0E096EEEEC1EF0075E
:103FA70050316E3150300F2D6E2D5070EC1DF02FAB
:103FB700C001F030C002F0000E046E0A0E036E4618
:103FC700EC1EF00150316E31501E0F2B6E31503008
:103FD7000F70EC1DF0270E086E000E096EE2EC1D47
:103FE700F0010E026E2C0E016E0CEC1EF09BEF1F03
:093FF700F09BEF1FF000EF00F059
:020000040020DA
:08000000FFFFFFFFFFFFFFFF00
:020000040030CA
:0E000000FF021F1EFF8181FF0FC00FE00F40A7
:00000001FF
